:0300000002001FDC
:04000B00120093321A
:10001B001200BD327520007521007522007580001D
:0F002B0075904275A00075230075A89A758922FB
:10003A00758A00758C01758B00758D0179057A05B5
:0F004A0002004D8580208590218522A08523B05E
:10005900A20072014044A21882044043A2108208FF
:0F0069004023A209B38211403FA2067207405400
:0F007800A21E82044053A216820D4034A20EB382
:100087008217404F02004DD28C02006BD90D7905C3
:0E009700C28CC218C219C210D2112222D21875
:1000A50002005FD219D210C211020065A20A40F304
:1000B500020072D28E020084DAE37A05C28EC21E75
:1000C500C21FC216D21722D21E020078D21FD21624
:0C00D500C21702007EA20F40F302008B55
:00000001FF
